{
  "contractName": "OneAct",
  "abi": [
    {
      "inputs": [],
      "stateMutability": "nonpayable",
      "type": "constructor"
    },
    {
      "anonymous": false,
      "inputs": [
        {
          "indexed": false,
          "internalType": "uint256",
          "name": "id",
          "type": "uint256"
        }
      ],
      "name": "CauseToggle",
      "type": "event"
    },
    {
      "anonymous": false,
      "inputs": [
        {
          "indexed": false,
          "internalType": "uint256",
          "name": "amount",
          "type": "uint256"
        }
      ],
      "name": "Donated",
      "type": "event"
    },
    {
      "anonymous": false,
      "inputs": [
        {
          "indexed": false,
          "internalType": "uint256",
          "name": "id",
          "type": "uint256"
        }
      ],
      "name": "EventCreated",
      "type": "event"
    },
    {
      "anonymous": false,
      "inputs": [
        {
          "indexed": false,
          "internalType": "uint256",
          "name": "id",
          "type": "uint256"
        }
      ],
      "name": "Withdraw",
      "type": "event"
    },
    {
      "inputs": [],
      "name": "eventId",
      "outputs": [
        {
          "internalType": "uint256",
          "name": "",
          "type": "uint256"
        }
      ],
      "stateMutability": "view",
      "type": "function",
      "constant": true
    },
    {
      "inputs": [
        {
          "internalType": "uint256",
          "name": "",
          "type": "uint256"
        }
      ],
      "name": "fundRaises",
      "outputs": [
        {
          "internalType": "string",
          "name": "title",
          "type": "string"
        },
        {
          "internalType": "string",
          "name": "description",
          "type": "string"
        },
        {
          "internalType": "uint256",
          "name": "goal",
          "type": "uint256"
        },
        {
          "internalType": "uint256",
          "name": "current",
          "type": "uint256"
        },
        {
          "internalType": "uint256",
          "name": "id",
          "type": "uint256"
        },
        {
          "internalType": "bool",
          "name": "status",
          "type": "bool"
        },
        {
          "internalType": "address",
          "name": "creator",
          "type": "address"
        }
      ],
      "stateMutability": "view",
      "type": "function",
      "constant": true
    },
    {
      "inputs": [
        {
          "internalType": "string",
          "name": "title",
          "type": "string"
        },
        {
          "internalType": "string",
          "name": "description",
          "type": "string"
        },
        {
          "internalType": "uint256",
          "name": "goal",
          "type": "uint256"
        }
      ],
      "name": "createEvent",
      "outputs": [],
      "stateMutability": "nonpayable",
      "type": "function"
    },
    {
      "inputs": [
        {
          "internalType": "uint256",
          "name": "idForEvent",
          "type": "uint256"
        }
      ],
      "name": "donate",
      "outputs": [],
      "stateMutability": "payable",
      "type": "function",
      "payable": true
    },
    {
      "inputs": [
        {
          "internalType": "uint256",
          "name": "idForEvent",
          "type": "uint256"
        }
      ],
      "name": "withdraw",
      "outputs": [],
      "stateMutability": "nonpayable",
      "type": "function"
    },
    {
      "inputs": [
        {
          "internalType": "uint256",
          "name": "_index",
          "type": "uint256"
        }
      ],
      "name": "toggleCause",
      "outputs": [],
      "stateMutability": "nonpayable",
      "type": "function"
    },
    {
      "inputs": [],
      "name": "getHomeData",
      "outputs": [
        {
          "components": [
            {
              "internalType": "uint256",
              "name": "id",
              "type": "uint256"
            },
            {
              "internalType": "string",
              "name": "title",
              "type": "string"
            },
            {
              "internalType": "string",
              "name": "des",
              "type": "string"
            },
            {
              "internalType": "uint256",
              "name": "goal",
              "type": "uint256"
            },
            {
              "internalType": "uint256",
              "name": "current",
              "type": "uint256"
            },
            {
              "internalType": "bool",
              "name": "status",
              "type": "bool"
            },
            {
              "internalType": "address",
              "name": "creator",
              "type": "address"
            }
          ],
          "internalType": "struct OneAct.HomeCard[]",
          "name": "",
          "type": "tuple[]"
        }
      ],
      "stateMutability": "view",
      "type": "function",
      "constant": true
    }
  ],
  "bytecode": "0x6080604052600080553480156200001557600080fd5b50600080546040805161012081018252600a60e082019081526954657374205469746c6560b01b610100830152815281518083018352601081526f2a32b9ba102232b9b1b934b83a34b7b760811b602082810191909152808301919091526101f4828401526060820185905260808201849052600160a083018190523360c0840181905285875290825292909420815180519495939492938493620000be928492019062000193565b506020828101518051620000d9926001850192019062000193565b5060408201516002820155606082015160038201556080820151600482015560a08201516005909101805460c0909301516001600160a01b031661010002610100600160a81b0319921515929092166001600160a81b031990931692909217179055600080546001919081906200015290849062000239565b90915550506040518381527f748ff5cfd7b66bdd8e21581c2a864756fe7085378c0003183e579bfafba283259060200160405180910390a15050506200029d565b828054620001a19062000260565b90600052602060002090601f016020900481019282620001c5576000855562000210565b82601f10620001e057805160ff191683800117855562000210565b8280016001018555821562000210579182015b8281111562000210578251825591602001919060010190620001f3565b506200021e92915062000222565b5090565b5b808211156200021e576000815560010162000223565b600082198211156200025b57634e487b7160e01b600052601160045260246000fd5b500190565b600181811c908216806200027557607f821691505b602082108114156200029757634e487b7160e01b600052602260045260246000fd5b50919050565b610bd780620002ad6000396000f3fe6080604052600436106100705760003560e01c80633958f20d1161004e5780633958f20d146100f35780635555fe1714610115578063e677999714610135578063f14faf6f1461015557600080fd5b8063089cdd0c146100755780632c0946c71461009e5780632e1a7d4d146100d1575b600080fd5b34801561008157600080fd5b5061008b60005481565b6040519081526020015b60405180910390f35b3480156100aa57600080fd5b506100be6100b9366004610878565b610168565b60405161009597969594939291906108de565b3480156100dd57600080fd5b506100f16100ec366004610878565b6102c0565b005b3480156100ff57600080fd5b5061010861036e565b6040516100959190610939565b34801561012157600080fd5b506100f1610130366004610aa0565b6105ff565b34801561014157600080fd5b506100f1610150366004610878565b610730565b6100f1610163366004610878565b61078a565b60016020526000908152604090208054819061018390610b0d565b80601f01602080910402602001604051908101604052809291908181526020018280546101af90610b0d565b80156101fc5780601f106101d1576101008083540402835291602001916101fc565b820191906000526020600020905b8154815290600101906020018083116101df57829003601f168201915b50505050509080600101805461021190610b0d565b80601f016020809104026020016040519081016040528092919081815260200182805461023d90610b0d565b801561028a5780601f1061025f5761010080835404028352916020019161028a565b820191906000526020600020905b81548152906001019060200180831161026d57829003601f168201915b505050506002830154600384015460048501546005909501549394919390925060ff81169061010090046001600160a01b031687565b6000818152600160205260409020600581015433919061010090046001600160a01b031682146102ef57600080fd5b60038101546040516001600160a01b0384169180156108fc02916000818181858888f19350505050158015610328573d6000803e3d6000fd5b5060058101805460ff191690556040518381527f5b6b431d4476a211bb7d41c20d1aab9ae2321deee0d20be3d9fc9b1093fa6e3d906020015b60405180910390a1505050565b60606000805467ffffffffffffffff81111561038c5761038c6109fd565b60405190808252806020026020018201604052801561040857816020015b6103f56040518060e00160405280600081526020016060815260200160608152602001600081526020016000815260200160001515815260200160006001600160a01b031681525090565b8152602001906001900390816103aa5790505b50905060005b6000548110156105f9576040805160e081018252600083815260016020818152938220600481015484528583529084528054919383019161044e90610b0d565b80601f016020809104026020016040519081016040528092919081815260200182805461047a90610b0d565b80156104c75780601f1061049c576101008083540402835291602001916104c7565b820191906000526020600020905b8154815290600101906020018083116104aa57829003601f168201915b505050505081526020016001600085815260200190815260200160002060010180546104f290610b0d565b80601f016020809104026020016040519081016040528092919081815260200182805461051e90610b0d565b801561056b5780601f106105405761010080835404028352916020019161056b565b820191906000526020600020905b81548152906001019060200180831161054e57829003601f168201915b505050918352505060008481526001602081815260408084206002810154838701526003810154918601919091526005015460ff811615156060860152928790525261010090046001600160a01b0316608090910152835190915081908490849081106105da576105da610b42565b60200260200101819052505080806105f190610b6e565b91505061040e565b50919050565b600080546040805160e08101825286815260208082018790528183018690526060820185905260808201849052600160a083018190523360c084018190528587529082529290942081518051949593949293849361066092849201906107df565b50602082810151805161067992600185019201906107df565b5060408201516002820155606082015160038201556080820151600482015560a08201516005909101805460c0909301516001600160a01b031661010002610100600160a81b0319921515929092166001600160a81b031990931692909217179055600080546001919081906106f0908490610b89565b90915550506040518381527f748ff5cfd7b66bdd8e21581c2a864756fe7085378c0003183e579bfafba283259060200160405180910390a1505050505050565b60008181526001602090815260409182902060058101805460ff81161560ff1990911617905591518381527ff551a4518dce661b28bf55e0e582ab68ba9ac8468464752fd4caa4f29f4bfcb7910160405180910390a15050565b6000818152600160205260409020600381015434906107aa908290610b89565b60038301556040518181527fa7035481213199a4d64792e8c2fc7bff2b334e0935d33eaabc063a116485663390602001610361565b8280546107eb90610b0d565b90600052602060002090601f01602090048101928261080d5760008555610853565b82601f1061082657805160ff1916838001178555610853565b82800160010185558215610853579182015b82811115610853578251825591602001919060010190610838565b5061085f929150610863565b5090565b5b8082111561085f5760008155600101610864565b60006020828403121561088a57600080fd5b5035919050565b6000815180845260005b818110156108b75760208185018101518683018201520161089b565b818111156108c9576000602083870101525b50601f01601f19169290920160200192915050565b60e0815260006108f160e083018a610891565b8281036020840152610903818a610891565b6040840198909852505060608101949094526080840192909252151560a08301526001600160a01b031660c09091015292915050565b60006020808301818452808551808352604092508286019150828160051b87010184880160005b838110156109ef57603f19898403018552815160e08151855288820151818a87015261098e82870182610891565b91505087820151858203898701526109a68282610891565b606084810151908801526080808501519088015260a08085015115159088015260c0938401516001600160a01b0316939096019290925250509386019390860190600101610960565b509098975050505050505050565b634e487b7160e01b600052604160045260246000fd5b600082601f830112610a2457600080fd5b813567ffffffffffffffff80821115610a3f57610a3f6109fd565b604051601f8301601f19908116603f01168101908282118183101715610a6757610a676109fd565b81604052838152866020858801011115610a8057600080fd5b836020870160208301376000602085830101528094505050505092915050565b600080600060608486031215610ab557600080fd5b833567ffffffffffffffff80821115610acd57600080fd5b610ad987838801610a13565b94506020860135915080821115610aef57600080fd5b50610afc86828701610a13565b925050604084013590509250925092565b600181811c90821680610b2157607f821691505b602082108114156105f957634e487b7160e01b600052602260045260246000fd5b634e487b7160e01b600052603260045260246000fd5b634e487b7160e01b600052601160045260246000fd5b6000600019821415610b8257610b82610b58565b5060010190565b60008219821115610b9c57610b9c610b58565b50019056fea264697066735822122047dae692ac2feb2a128dd8ae640db4d79922cebd351a338984789c252423612964736f6c634300080a0033",
  "immutableReferences": {},
  "source": "// SPDX-License-Identifier: MIT\r\npragma solidity >=0.4.22 <0.9.0;\r\n\r\ncontract OneAct {\r\n  uint public eventId = 0;\r\n    mapping (uint => FundRaiseEvent) public fundRaises; // will also create getEvents automatically by solidity \r\n\r\n    struct FundRaiseEvent{\r\n        string title;\r\n        string description; \r\n        uint goal; \r\n        uint current; \r\n        uint id; \r\n        bool status; \r\n        address creator; \r\n    }\r\n\r\n    \r\n    struct HomeCard{\r\n        uint id;\r\n        string title; \r\n        string des; \r\n        uint goal;\r\n        uint current;\r\n        bool status; \r\n        address creator;\r\n    }\r\n    constructor() {\r\n        uint idForNewEvent = eventId; \r\n        address eventCreator = msg.sender; \r\n        FundRaiseEvent memory newFundRaise = FundRaiseEvent(\"Test Title\", \"Test Description\", 500, 0, idForNewEvent, true, eventCreator);\r\n        fundRaises[idForNewEvent] = newFundRaise; \r\n        eventId += 1; \r\n        emit EventCreated(idForNewEvent);\r\n    }\r\n\r\n    event EventCreated(uint id); \r\n    event Donated(uint amount); \r\n    event Withdraw(uint id); \r\n    event CauseToggle(uint id); \r\n\r\n    function createEvent(string memory title, string memory description, uint goal) public {\r\n\r\n        uint idForNewEvent = eventId; \r\n        address eventCreator = msg.sender; \r\n        FundRaiseEvent memory newFundRaise = FundRaiseEvent(title, description, goal, 0, idForNewEvent, true, eventCreator);\r\n        fundRaises[idForNewEvent] = newFundRaise; \r\n        eventId += 1; \r\n        emit EventCreated(idForNewEvent);\r\n    }\r\n\r\n    function donate(uint idForEvent) public payable{\r\n        FundRaiseEvent storage fundRaise = fundRaises[idForEvent]; \r\n        //require(fundRaise.creator == msg.sender, \"You are the Creator\");\r\n        uint amount = msg.value; \r\n        fundRaise.current = fundRaise.current + amount; \r\n        emit Donated(amount);\r\n    }\r\n\r\n    function withdraw(uint idForEvent) public {\r\n        address payable accountWithDrawing = payable(msg.sender); \r\n        FundRaiseEvent storage fundRaise = fundRaises[idForEvent]; \r\n        require(accountWithDrawing == fundRaise.creator); //only if the address is creator address\r\n        accountWithDrawing.transfer(fundRaise.current); \r\n        fundRaise.status = false; \r\n        emit Withdraw(idForEvent);\r\n    }\r\n\r\n    function toggleCause(uint _index) external {\r\n        FundRaiseEvent storage fundRaise = fundRaises[_index]; \r\n        //require(msg.sender != fundRaise.creator, \"You are not the Owner\"); //only if the address is creator address\r\n        fundRaise.status = !fundRaise.status;     \r\n        emit CauseToggle(_index);\r\n    }\r\n    function getHomeData() public view returns(HomeCard[] memory){\r\n        HomeCard[] memory cards = new HomeCard[](eventId); \r\n        for(uint i =0; i<eventId; i++){\r\n            HomeCard memory homeCard = HomeCard(fundRaises[i].id, fundRaises[i].title, fundRaises[i].description, \r\n             fundRaises[i].goal,  fundRaises[i].current ,  fundRaises[i].status,  fundRaises[i].creator); \r\n            cards[i] = homeCard;         \r\n        }\r\n        return cards; \r\n    }\r\n\r\n    \r\n}\r\n",
  "sourcePath": "C:\\Users\\Krishna Shrestha\\Projects\\Blockchain\\reviewme\\src\\contracts\\OneAct.sol",
  "compiler": {
    "name": "solc",
    "version": "0.8.10+commit.fc410830.Emscripten.clang"
  },
  "schemaVersion": "3.4.3",
  "updatedAt": "2021-12-02T12:43:08.975Z",
  "networkType": "ethereum",
  "devdoc": {
    "kind": "dev",
    "methods": {},
    "version": 1
  },
  "userdoc": {
    "kind": "user",
    "methods": {},
    "version": 1
  }
}